:100000000C9434000C9451000C9451000C94510049
:100010000C9451000C9451000C9451000C9451001C
:100020000C9451000C9451000C9451000C9451000C
:100030000C9451000C9451000C9453000C945100FA
:100040000C9451000C9451000C9451000C945100EC
:100050000C9451000C9451000C9451000C945100DC
:100060000C9451000C94510011241FBECFEFD8E026
:10007000DEBFCDBF12E0A0E0B1E0E6E7F7E002C0EE
:1000800005900D92A43AB107D9F722E0A4EAB2E0B4
:1000900001C01D92AC3AB207E1F70E9428020C940D
:1000A000B9030C9400001F921FB61F9211242F93C6
:1000B0003F938F939F9387B5845287BD8091A4020D
:1000C0009091A50201969093A5028093A40220919D
:1000D000A4023091A502809102019091030128179A
:1000E000390709F45F982091A4023091A50280910C
:1000F0000001909101012817390709F4289880918F
:10010000A4029091A502803D974034F01092A50280
:100110001092A4025F9A289A9F918F913F912F91FC
:100120001F901FBE1F901895F89414BC15BC16BCE8
:100130008CED87BD85B5886085BD85B5816085BD41
:10014000EEE6F0E080818260808378940895E1E8B3
:10015000F0E0808181608083089520918400309157
:1001600085008091840090918500821B930B8636D8
:100170009645B8F30895CF93DF93EC01209719F4D7
:10018000DF91CF9108950E94AD002197F7CFCF93D3
:10019000DF9300D000D0CDB7DEB7AC0181E086BBE5
:1001A00086E090E021E0199932C081E086BB86E0CC
:1001B00090E021E0199B3FC081E086BB6091840004
:1001C0007091850090E080E030E020E0E1E02417CD
:1001D00035070CF43FC0209184003091850026172C
:1001E000370708F40197092E000CAA0BBB0BDC01A2
:1001F00099278827261B370BAC01BD01420F531FDF
:10020000611D711D49835A836B837C8309C0B09B38
:10021000CACF26BB019739F619821A821B821C822B
:1002200069817A818B819C810F900F900F900F9044
:10023000DF91CF910895B09BBDCF26BB019709F008
:10024000B9CFEACFB09B06C0E6BB01968130F4E09F
:100250009F0714F71999F6CF199B03C02F5F3F4FE3
:10026000B6CFB09BF9CFE6BB01968130F4E09F0793
:100270009CF3D2CF80E480937C0087E880937A005F
:1002800008959C0190917C00987F27703327922BD2
:1002900090937C0080917A00806480937A008091B2
:1002A0007A0086FDFCCF80917800909179000895C6
:1002B0008F929F92AF92BF92EF92FF920F931F93F4
:1002C000CF93DF93CDB7DEB7E6970FB6F894DEBFD6
:1002D0000FBECDBF6BAB7CAB8DAB9EAB790181E12B
:1002E000E2E1F1E0DE01929601900D928A95E1F74C
:1002F00019A20FE110E04A01550FAA08BB088BA90B
:100300009CA9ADA9BEA9181619061A061B06F4F079
:100310001E141F04DCF0C8010196A1E0B0E0AC0F90
:10032000BD1F8A0F9B1F0E941C02E6960FB6F89411
:10033000DEBF0FBECDBFDF91CF911F910F91FF9018
:10034000EF90BF90AF909F908F9008956BA97CA97C
:100350008DA99EA9A50194010E948B036BAB7CAB78
:100360008DAB9EABE2E2F0E0EC0FFD1F8BA99CA9E8
:10037000E80FF91F8081E1E0F0E0EC0FFD1FE00FD6
:10038000F11F80832BAB3CAB4DAB5EABE114F104B2
:1003900019F091E0E91AF10801501109B0CF219844
:1003A000299A8AB18C6F8AB98BB183708BB9209AE4
:1003B00085B1807185B9089584E091E09093A90298
:1003C0008093A802519A50981092C5008FE88093AC
:1003D000C400E1ECF0E080818860808380818061EE
:1003E000808386E08093C200E0ECF0E08081826050
:1003F000808308959091C00095FFFCCF8093C60044
:100400000895CF93C82F8A3019F48DE00E94FA0125
:100410008C2F0E94FA0190E080E0CF9108958091A6
:10042000C00087FFFCCF8091C60008958091C00076
:10043000881F8827881F0895CF93DF93EC01899147
:10044000811103C0DF91CF9108950E94FA01F7CF87
:10045000CDB7DEB729970FB6F894DEBF0FBECDBF7C
:100460000E94DC010E943A010E94CF010E94940088
:100470000E94A70084EF91E00E94BB0083E291E01C
:100480000E941C028EE291E00E941C0280E591E035
:100490000E941C028DE991E00E941C0280ED91E017
:1004A0000E941C028AE192E00E941C021986CC2460
:1004B000CA9483E0D82EE12CF12C98EE892E93E09B
:1004C000992EA12CB12C90E080E00E9441018C017A
:1004D00089E592E00E941C02B0E0A0E023E030E059
:1004E00040E150E0B801CD010E94580183E692E05E
:1004F0000E941C029801A8E8B3E10E94AA03A70188
:1005000096010E948B03CA01B901A50194010E94C2
:10051000690329833A834B835C836D837E838F8356
:10052000988721E030E04AE050E069817A818B8150
:100530009C810E94580186E692E00E941C0223E002
:1005400030E04AE050E06D817E818F8198850E9485
:10055000580188E692E00E941C0281E090E00E942F
:1005600041018C018BE692E00E941C02B0E0A0E009
:1005700023E030E040E150E0B801CD010E94580195
:1005800083E692E00E941C029801A8E8B3E10E9471
:10059000AA03A70196010E948B03CA01B901A50114
:1005A00094010E94690329833A834B835C836D83A2
:1005B0007E838F83988721E030E04AE050E06981B4
:1005C0007A818B819C810E94580186E692E00E948C
:1005D0001C0223E030E04AE050E06D817E818F8193
:1005E00098850E94580188E692E00E941C0284E6E9
:1005F00090E00E94C70069837A838B839C83898102
:100600009A81AB81BC81181619061A061B060CF0DC
:1006100043C085E792E00E941C0260E070E086ED36
:1006200093E829813A814B815C810E948B032D8361
:100630003E834F83588727E030E04AE050E06D81E9
:100640007E818F8198850E94580188E792E00E9400
:100650001C0226E030E04AE050E069817A818B811B
:100660009C810E94580187E992E00E941C025A98DE
:100670005B985C985D985E989985933031F178F439
:10068000913091F09230E9F0B985BF5FB9875A9AFD
:10069000B53069F419860BC083E892E0E6CFA985EE
:1006A000A43091F75E9AF6CF5B9A22E02987AFEFEC
:1006B000BFE72DE0A150B0402040E1F700C00000AE
:1006C00002CF5C9A83E08987F2CF5D9A94E09987A4
:1006D000EECFA1E21A2EAA1BBB1BFD010DC0AA1F63
:1006E000BB1FEE1FFF1FA217B307E407F50720F09B
:1006F000A21BB30BE40BF50B661F771F881F991F16
:100700001A9469F760957095809590959B01AC015E
:10071000BD01CF010895052E97FB1EF400940E94A1
:10072000A20357FD07D00E94690307FC03D04EF4D3
:100730000C94A20350954095309521953F4F4F4F13
:100740005F4F089590958095709561957F4F8F4F7D
:100750009F4F0895A29FB001B39FC001A39F700D4A
:10076000811D1124911DB29F700D811D1124911DB9
:060770000895F894FFCF8C
:100776009600960000000002000000000102000042
:10078600000030313233343536373839414243444C
:100796004546001B5B324A1B5B313B3148000D0A64
:1007A60041544D65676133323850206D756C7469FC
:1007B60020492F4F206578616D706C652E0D0A00FB
:1007C6004D656173757265732074686520766F6C0C
:1007D60074616765206174206368616E6E656C7311
:1007E600203020616E642031202870696E732032BB
:1007F6003320616E64203234206F662044495032C3
:1008060038207061636B616765290D0A004D65616B
:10081600737572657320706572696F64206F6E20E0
:10082600504231202870696E203135206F66204491
:1008360049503238207061636B616765290D0A0083
:10084600546F67676C6573205044322C20504433D4
:100856002C205044342C205044352C205044362033
:100866002870696E7320342C20352C20362C2031CC
:10087600312C203132206F662044495032382070A6
:1008860061636B616765290D0A0047656E65726174
:1008960074657320536572766F2050574D732069C7
:1008A6006E205044372C20504230202831332C20E3
:1008B6003134206F66204449503238207061636BB2
:1008C600616765290D0A0D0A004144435B305D3DB1
:1008D6003078002C20002E005620004144435B3126
:1008E6005D3D307800663D00487A2C20636F756E5A
:1008F600743D004E4F205349474E414C2020202046
:1009060020202020202020202020202020202020E1
:04091600200D0000B0
:00000001FF
